{
  "_format": "hh-sol-artifact-1",
  "contractName": "Marketplace",
  "sourceName": "contracts/Marketplace.sol",
  "abi": [
    {
      "inputs": [
        {
          "internalType": "address",
          "name": "_platform",
          "type": "address"
        }
      ],
      "stateMutability": "nonpayable",
      "type": "constructor"
    },
    {
      "anonymous": false,
      "inputs": [
        {
          "indexed": false,
          "internalType": "uint256",
          "name": "listingId",
          "type": "uint256"
        },
        {
          "indexed": false,
          "internalType": "address",
          "name": "seller",
          "type": "address"
        }
      ],
      "name": "CancelBid",
      "type": "event"
    },
    {
      "anonymous": false,
      "inputs": [
        {
          "indexed": false,
          "internalType": "uint256",
          "name": "rentalId",
          "type": "uint256"
        }
      ],
      "name": "FinishRentalForCollateral",
      "type": "event"
    },
    {
      "anonymous": false,
      "inputs": [
        {
          "indexed": false,
          "internalType": "uint256",
          "name": "rentalId",
          "type": "uint256"
        }
      ],
      "name": "FinishRentalForNFT",
      "type": "event"
    },
    {
      "anonymous": false,
      "inputs": [
        {
          "indexed": false,
          "internalType": "uint256",
          "name": "listingId",
          "type": "uint256"
        },
        {
          "indexed": false,
          "internalType": "address",
          "name": "seller",
          "type": "address"
        },
        {
          "indexed": false,
          "internalType": "address",
          "name": "token",
          "type": "address"
        },
        {
          "indexed": false,
          "internalType": "uint256",
          "name": "tokenId",
          "type": "uint256"
        },
        {
          "indexed": false,
          "internalType": "uint256",
          "name": "price",
          "type": "uint256"
        }
      ],
      "name": "Listed",
      "type": "event"
    },
    {
      "anonymous": false,
      "inputs": [
        {
          "indexed": false,
          "internalType": "uint256",
          "name": "stakingId",
          "type": "uint256"
        },
        {
          "indexed": false,
          "internalType": "address",
          "name": "maker",
          "type": "address"
        },
        {
          "indexed": false,
          "internalType": "address",
          "name": "token",
          "type": "address"
        },
        {
          "indexed": false,
          "internalType": "uint256",
          "name": "tokenId",
          "type": "uint256"
        },
        {
          "indexed": false,
          "internalType": "uint256",
          "name": "collateral",
          "type": "uint256"
        },
        {
          "indexed": false,
          "internalType": "uint256",
          "name": "premium",
          "type": "uint256"
        },
        {
          "indexed": false,
          "internalType": "uint256",
          "name": "deadline",
          "type": "uint256"
        }
      ],
      "name": "QuotedForStaking",
      "type": "event"
    },
    {
      "anonymous": false,
      "inputs": [
        {
          "indexed": false,
          "internalType": "uint256",
          "name": "rentalId",
          "type": "uint256"
        },
        {
          "indexed": false,
          "internalType": "address",
          "name": "taker",
          "type": "address"
        }
      ],
      "name": "Rental",
      "type": "event"
    },
    {
      "anonymous": false,
      "inputs": [
        {
          "indexed": false,
          "internalType": "uint256",
          "name": "listingId",
          "type": "uint256"
        },
        {
          "indexed": false,
          "internalType": "address",
          "name": "buyer",
          "type": "address"
        },
        {
          "indexed": false,
          "internalType": "address",
          "name": "token",
          "type": "address"
        },
        {
          "indexed": false,
          "internalType": "uint256",
          "name": "tokenId",
          "type": "uint256"
        },
        {
          "indexed": false,
          "internalType": "uint256",
          "name": "price",
          "type": "uint256"
        }
      ],
      "name": "Sale",
      "type": "event"
    },
    {
      "inputs": [
        {
          "internalType": "uint256",
          "name": "",
          "type": "uint256"
        }
      ],
      "name": "_listings",
      "outputs": [
        {
          "internalType": "enum Marketplace.ListingStatus",
          "name": "status",
          "type": "uint8"
        },
        {
          "internalType": "address",
          "name": "seller",
          "type": "address"
        },
        {
          "internalType": "uint256",
          "name": "price",
          "type": "uint256"
        },
        {
          "internalType": "address",
          "name": "token",
          "type": "address"
        },
        {
          "internalType": "uint256",
          "name": "tokenId",
          "type": "uint256"
        }
      ],
      "stateMutability": "view",
      "type": "function"
    },
    {
      "inputs": [],
      "name": "_listingsLastIndex",
      "outputs": [
        {
          "internalType": "uint256",
          "name": "",
          "type": "uint256"
        }
      ],
      "stateMutability": "view",
      "type": "function"
    },
    {
      "inputs": [
        {
          "internalType": "uint256",
          "name": "",
          "type": "uint256"
        }
      ],
      "name": "_stakings",
      "outputs": [
        {
          "internalType": "enum Marketplace.StakeStatus",
          "name": "status",
          "type": "uint8"
        },
        {
          "internalType": "address",
          "name": "maker",
          "type": "address"
        },
        {
          "internalType": "address",
          "name": "taker",
          "type": "address"
        },
        {
          "internalType": "uint256",
          "name": "collateral",
          "type": "uint256"
        },
        {
          "internalType": "uint256",
          "name": "premium",
          "type": "uint256"
        },
        {
          "internalType": "uint256",
          "name": "startRentalUTC",
          "type": "uint256"
        },
        {
          "internalType": "uint256",
          "name": "paymentsAmount",
          "type": "uint256"
        },
        {
          "internalType": "uint256",
          "name": "deadline",
          "type": "uint256"
        },
        {
          "internalType": "address",
          "name": "token",
          "type": "address"
        },
        {
          "internalType": "uint256",
          "name": "tokenId",
          "type": "uint256"
        }
      ],
      "stateMutability": "view",
      "type": "function"
    },
    {
      "inputs": [],
      "name": "_stakingsLastIndex",
      "outputs": [
        {
          "internalType": "uint256",
          "name": "",
          "type": "uint256"
        }
      ],
      "stateMutability": "view",
      "type": "function"
    },
    {
      "inputs": [
        {
          "internalType": "address",
          "name": "tokenContract",
          "type": "address"
        },
        {
          "internalType": "uint256",
          "name": "tokenId",
          "type": "uint256"
        },
        {
          "internalType": "uint256",
          "name": "priceWei",
          "type": "uint256"
        }
      ],
      "name": "bid",
      "outputs": [],
      "stateMutability": "payable",
      "type": "function"
    },
    {
      "inputs": [
        {
          "internalType": "uint256",
          "name": "listingId",
          "type": "uint256"
        }
      ],
      "name": "buyToken",
      "outputs": [],
      "stateMutability": "payable",
      "type": "function"
    },
    {
      "inputs": [
        {
          "internalType": "uint256",
          "name": "stakingId",
          "type": "uint256"
        }
      ],
      "name": "canRentNFT",
      "outputs": [
        {
          "internalType": "bool",
          "name": "",
          "type": "bool"
        }
      ],
      "stateMutability": "view",
      "type": "function"
    },
    {
      "inputs": [
        {
          "internalType": "uint256",
          "name": "listingId",
          "type": "uint256"
        }
      ],
      "name": "cancel",
      "outputs": [],
      "stateMutability": "nonpayable",
      "type": "function"
    },
    {
      "inputs": [
        {
          "internalType": "uint256",
          "name": "stakingId",
          "type": "uint256"
        }
      ],
      "name": "claimCollateral",
      "outputs": [],
      "stateMutability": "nonpayable",
      "type": "function"
    },
    {
      "inputs": [
        {
          "internalType": "uint256",
          "name": "stakingId",
          "type": "uint256"
        }
      ],
      "name": "dateOfNextPayment",
      "outputs": [
        {
          "internalType": "uint256",
          "name": "date",
          "type": "uint256"
        }
      ],
      "stateMutability": "view",
      "type": "function"
    },
    {
      "inputs": [
        {
          "internalType": "uint256",
          "name": "listingId",
          "type": "uint256"
        }
      ],
      "name": "getListing",
      "outputs": [
        {
          "components": [
            {
              "internalType": "enum Marketplace.ListingStatus",
              "name": "status",
              "type": "uint8"
            },
            {
              "internalType": "address",
              "name": "seller",
              "type": "address"
            },
            {
              "internalType": "uint256",
              "name": "price",
              "type": "uint256"
            },
            {
              "internalType": "address",
              "name": "token",
              "type": "address"
            },
            {
              "internalType": "uint256",
              "name": "tokenId",
              "type": "uint256"
            }
          ],
          "internalType": "struct Marketplace.Listing",
          "name": "",
          "type": "tuple"
        }
      ],
      "stateMutability": "view",
      "type": "function"
    },
    {
      "inputs": [
        {
          "internalType": "uint256",
          "name": "stakingId",
          "type": "uint256"
        }
      ],
      "name": "getStaking",
      "outputs": [
        {
          "components": [
            {
              "internalType": "enum Marketplace.StakeStatus",
              "name": "status",
              "type": "uint8"
            },
            {
              "internalType": "address",
              "name": "maker",
              "type": "address"
            },
            {
              "internalType": "address",
              "name": "taker",
              "type": "address"
            },
            {
              "internalType": "uint256",
              "name": "collateral",
              "type": "uint256"
            },
            {
              "internalType": "uint256",
              "name": "premium",
              "type": "uint256"
            },
            {
              "internalType": "uint256",
              "name": "startRentalUTC",
              "type": "uint256"
            },
            {
              "internalType": "uint256",
              "name": "paymentsAmount",
              "type": "uint256"
            },
            {
              "internalType": "uint256",
              "name": "deadline",
              "type": "uint256"
            },
            {
              "internalType": "address",
              "name": "token",
              "type": "address"
            },
            {
              "internalType": "uint256",
              "name": "tokenId",
              "type": "uint256"
            }
          ],
          "internalType": "struct Marketplace.Staking",
          "name": "",
          "type": "tuple"
        }
      ],
      "stateMutability": "view",
      "type": "function"
    },
    {
      "inputs": [
        {
          "internalType": "uint256",
          "name": "listingId",
          "type": "uint256"
        }
      ],
      "name": "isBuyable",
      "outputs": [
        {
          "internalType": "bool",
          "name": "",
          "type": "bool"
        }
      ],
      "stateMutability": "view",
      "type": "function"
    },
    {
      "inputs": [
        {
          "internalType": "uint256",
          "name": "stakingId",
          "type": "uint256"
        }
      ],
      "name": "isCollateralClaimable",
      "outputs": [
        {
          "internalType": "bool",
          "name": "status",
          "type": "bool"
        }
      ],
      "stateMutability": "view",
      "type": "function"
    },
    {
      "inputs": [
        {
          "internalType": "uint256",
          "name": "stakingId",
          "type": "uint256"
        }
      ],
      "name": "payPremium",
      "outputs": [],
      "stateMutability": "payable",
      "type": "function"
    },
    {
      "inputs": [
        {
          "internalType": "uint256",
          "name": "stakingId",
          "type": "uint256"
        }
      ],
      "name": "paymentsDue",
      "outputs": [
        {
          "internalType": "int256",
          "name": "amountDue",
          "type": "int256"
        }
      ],
      "stateMutability": "view",
      "type": "function"
    },
    {
      "inputs": [],
      "name": "platform",
      "outputs": [
        {
          "internalType": "address",
          "name": "",
          "type": "address"
        }
      ],
      "stateMutability": "view",
      "type": "function"
    },
    {
      "inputs": [
        {
          "internalType": "address",
          "name": "tokenContract",
          "type": "address"
        },
        {
          "internalType": "uint256",
          "name": "tokenId",
          "type": "uint256"
        },
        {
          "internalType": "uint256",
          "name": "collateralWei",
          "type": "uint256"
        },
        {
          "internalType": "uint256",
          "name": "premiumWei",
          "type": "uint256"
        },
        {
          "internalType": "uint256",
          "name": "deadlineUTC",
          "type": "uint256"
        }
      ],
      "name": "quoteForStaking",
      "outputs": [],
      "stateMutability": "payable",
      "type": "function"
    },
    {
      "inputs": [
        {
          "internalType": "uint256",
          "name": "stakingId",
          "type": "uint256"
        }
      ],
      "name": "rentNFT",
      "outputs": [],
      "stateMutability": "payable",
      "type": "function"
    },
    {
      "inputs": [
        {
          "internalType": "uint256",
          "name": "stakingId",
          "type": "uint256"
        }
      ],
      "name": "stopRental",
      "outputs": [],
      "stateMutability": "nonpayable",
      "type": "function"
    },
    {
      "inputs": [
        {
          "internalType": "uint256",
          "name": "stakingIndex",
          "type": "uint256"
        }
      ],
      "name": "stopStaking",
      "outputs": [],
      "stateMutability": "nonpayable",
      "type": "function"
    }
  ],
  "bytecode": "0x60a06040523480156200001157600080fd5b5060405162004fe738038062004fe7833981810160405281019062000037919062000094565b60016000819055508073ffffffffffffffffffffffffffffffffffffffff1660808173ffffffffffffffffffffffffffffffffffffffff1660601b81525050506200010e565b6000815190506200008e81620000f4565b92915050565b600060208284031215620000a757600080fd5b6000620000b7848285016200007d565b91505092915050565b6000620000cd82620000d4565b9050919050565b600073ffffffffffffffffffffffffffffffffffffffff82169050919050565b620000ff81620000c0565b81146200010b57600080fd5b50565b60805160601c614eb3620001346000396000818161259a01526139ad0152614eb36000f3fe60806040526004361061012a5760003560e01c80634364b26e116100ab578063d10055431161006f578063d1005543146103c4578063d78a75ad14610401578063df76dbc91461042c578063e32446641461046d578063e738c7c814610498578063ecaf6d60146104d55761012a565b80634364b26e146102fb5780634bde38c814610317578063b6e96f4c14610342578063c49785b41461037f578063c893c659146103a85761012a565b80631c760bdb116100f25780631c760bdb146102135780631f01c0d11461023c5780632d296bf11461027957806331eb3f371461029557806340e58ee5146102d25761012a565b80630ae3f1091461012f5780630f41ba4b14610175578063107a274a1461019157806314364f1d146101ce578063156ecc3d146101ea575b600080fd5b34801561013b57600080fd5b5061015660048036038101906101519190613ce1565b610512565b60405161016c9a9998979695949392919061429c565b60405180910390f35b61018f600480360381019061018a9190613bf2565b6105d3565b005b34801561019d57600080fd5b506101b860048036038101906101b39190613ce1565b610a96565b6040516101c591906145f3565b60405180910390f35b6101e860048036038101906101e39190613ce1565b610c0a565b005b3480156101f657600080fd5b50610211600480360381019061020c9190613ce1565b61111b565b005b34801561021f57600080fd5b5061023a60048036038101906102359190613ce1565b6115bc565b005b34801561024857600080fd5b50610263600480360381019061025e9190613ce1565b6118cc565b6040516102709190614338565b60405180910390f35b610293600480360381019061028e9190613ce1565b611b0c565b005b3480156102a157600080fd5b506102bc60048036038101906102b79190613ce1565b611e8c565b6040516102c9919061460e565b60405180910390f35b3480156102de57600080fd5b506102f960048036038101906102f49190613ce1565b61207f565b005b61031560048036038101906103109190613ce1565b6122f6565b005b34801561032357600080fd5b5061032c612598565b60405161033991906141b3565b60405180910390f35b34801561034e57600080fd5b5061036960048036038101906103649190613ce1565b6125bc565b604051610376919061422e565b60405180910390f35b34801561038b57600080fd5b506103a660048036038101906103a19190613ce1565b612801565b005b6103c260048036038101906103bd9190613c41565b612ba1565b005b3480156103d057600080fd5b506103eb60048036038101906103e69190613ce1565b613177565b6040516103f8919061462a565b60405180910390f35b34801561040d57600080fd5b50610416613396565b604051610423919061462a565b60405180910390f35b34801561043857600080fd5b50610453600480360381019061044e9190613ce1565b61339c565b604051610464959493929190614249565b60405180910390f35b34801561047957600080fd5b5061048261341f565b60405161048f919061462a565b60405180910390f35b3480156104a457600080fd5b506104bf60048036038101906104ba9190613ce1565b613425565b6040516104cc919061422e565b60405180910390f35b3480156104e157600080fd5b506104fc60048036038101906104f79190613ce1565b613777565b604051610509919061422e565b60405180910390f35b60046020528060005260406000206000915090508060000160009054906101000a900460ff16908060000160019054906101000a900473ffffffffffffffffffffffffffffffffffffffff16908060010160009054906101000a900473ffffffffffffffffffffffffffffffffffffffff16908060020154908060030154908060040154908060050154908060060154908060070160009054906101000a900473ffffffffffffffffffffffffffffffffffffffff1690806008015490508a565b60026000541415610619576040517f08c379a0000000000000000000000000000000000000000000000000000000008152600401610610906145d3565b60405180910390fd5b60026000819055508273ffffffffffffffffffffffffffffffffffffffff1663e985e9c533306040518363ffffffff1660e01b815260040161065c9291906141ce565b60206040518083038186803b15801561067457600080fd5b505afa158015610688573d6000803e3d6000fd5b505050506040513d601f19601f820116820180604052508101906106ac9190613cb8565b6106eb576040517f08c379a00000000000000000000000000000000000000000000000000000000081526004016106e290614513565b60405180910390fd5b3373ffffffffffffffffffffffffffffffffffffffff168373ffffffffffffffffffffffffffffffffffffffff16636352211e846040518263ffffffff1660e01b815260040161073b919061462a565b60206040518083038186803b15801561075357600080fd5b505afa158015610767573d6000803e3d6000fd5b505050506040513d601f19601f8201168201806040525081019061078b9190613bc9565b73ffffffffffffffffffffffffffffffffffffffff16146107e1576040517f08c379a00000000000000000000000000000000000000000000000000000000081526004016107d890614373565b60405180910390fd5b67016345785d8a0000341461082b576040517f08c379a000000000000000000000000000000000000000000000000000000000815260040161082290614553565b60405180910390fd5b61083c67016345785d8a00006139ab565b6040518060a0016040528060006002811115610881577f4e487b7100000000000000000000000000000000000000000000000000000000600052602160045260246000fd5b81526020013373ffffffffffffffffffffffffffffffffffffffff1681526020018281526020018473ffffffffffffffffffffffffffffffffffffffff1681526020018381525060026000600154815260200190815260200160002060008201518160000160006101000a81548160ff0219169083600281111561092e577f4e487b7100000000000000000000000000000000000000000000000000000000600052602160045260246000fd5b021790555060208201518160000160016101000a81548173ffffffffffffffffffffffffffffffffffffffff021916908373ffffffffffffffffffffffffffffffffffffffff1602179055506040820151816001015560608201518160020160006101000a81548173ffffffffffffffffffffffffffffffffffffffff021916908373ffffffffffffffffffffffffffffffffffffffff160217905550608082015181600301559050507f723f73331eaee88eec7fc68ef60ab6ed15e4b90d0472b55eb92fa43910bab6dd60015433858585604051610a1195949392919061466e565b60405180910390a1600154600560008573ffffffffffffffffffffffffffffffffffffffff1673ffffffffffffffffffffffffffffffffffffffff1681526020019081526020016000206000848152602001908152602001600020819055506001806000828254610a829190614741565b925050819055506001600081905550505050565b610a9e613a15565b600260008381526020019081526020016000206040518060a00160405290816000820160009054906101000a900460ff166002811115610b07577f4e487b7100000000000000000000000000000000000000000000000000000000600052602160045260246000fd5b6002811115610b3f577f4e487b7100000000000000000000000000000000000000000000000000000000600052602160045260246000fd5b81526020016000820160019054906101000a900473ffffffffffffffffffffffffffffffffffffffff1673ffffffffffffffffffffffffffffffffffffffff1673ffffffffffffffffffffffffffffffffffffffff168152602001600182015481526020016002820160009054906101000a900473ffffffffffffffffffffffffffffffffffffffff1673ffffffffffffffffffffffffffffffffffffffff1673ffffffffffffffffffffffffffffffffffffffff1681526020016003820154815250509050919050565b60026000541415610c50576040517f08c379a0000000000000000000000000000000000000000000000000000000008152600401610c47906145d3565b60405180910390fd5b600260008190555060006004600083815260200190815260200160002090508060000160019054906101000a900473ffffffffffffffffffffffffffffffffffffffff1673ffffffffffffffffffffffffffffffffffffffff163373ffffffffffffffffffffffffffffffffffffffff161415610d02576040517f08c379a0000000000000000000000000000000000000000000000000000000008152600401610cf990614453565b60405180910390fd5b8060070160009054906101000a900473ffffffffffffffffffffffffffffffffffffffff1673ffffffffffffffffffffffffffffffffffffffff1663e985e9c58260000160019054906101000a900473ffffffffffffffffffffffffffffffffffffffff16306040518363ffffffff1660e01b8152600401610d859291906141ce565b60206040518083038186803b158015610d9d57600080fd5b505afa158015610db1573d6000803e3d6000fd5b505050506040513d601f19601f82011682018060405250810190610dd59190613cb8565b610e14576040517f08c379a0000000000000000000000000000000000000000000000000000000008152600401610e0b90614513565b60405180910390fd5b80600301548160020154610e289190614741565b3414610e69576040517f08c379a0000000000000000000000000000000000000000000000000000000008152600401610e60906144f3565b60405180910390fd5b428160040181905550338160010160006101000a81548173ffffffffffffffffffffffffffffffffffffffff021916908373ffffffffffffffffffffffffffffffffffffffff16021790555060018160000160006101000a81548160ff02191690836004811115610f03577f4e487b7100000000000000000000000000000000000000000000000000000000600052602160045260246000fd5b0217905550600181600501819055508060070160009054906101000a900473ffffffffffffffffffffffffffffffffffffffff1673ffffffffffffffffffffffffffffffffffffffff166342842e0e8260000160019054906101000a900473ffffffffffffffffffffffffffffffffffffffff168360010160009054906101000a900473ffffffffffffffffffffffffffffffffffffffff1684600801546040518463ffffffff1660e01b8152600401610fbf939291906141f7565b600060405180830381600087803b158015610fd957600080fd5b505af1158015610fed573d6000803e3d6000fd5b505050508060000160019054906101000a900473ffffffffffffffffffffffffffffffffffffffff1673ffffffffffffffffffffffffffffffffffffffff166108fc67016345785d8a00009081150290604051600060405180830381858888f19350505050158015611063573d6000803e3d6000fd5b5060006014606483600301546110799190614797565b61108391906147c8565b9050600081836003015461109791906148b6565b90506110a2826139ab565b8260000160019054906101000a900473ffffffffffffffffffffffffffffffffffffffff1673ffffffffffffffffffffffffffffffffffffffff166108fc829081150290604051600060405180830381858888f1935050505015801561110c573d6000803e3d6000fd5b50505050600160008190555050565b60026000541415611161576040517f08c379a0000000000000000000000000000000000000000000000000000000008152600401611158906145d3565b60405180910390fd5b60026000819055506000600460008381526020019081526020016000209050600060048111156111ba577f4e487b7100000000000000000000000000000000000000000000000000000000600052602160045260246000fd5b8160000160009054906101000a900460ff166004811115611204577f4e487b7100000000000000000000000000000000000000000000000000000000600052602160045260246000fd5b14611244576040517f08c379a000000000000000000000000000000000000000000000000000000000815260040161123b90614593565b60405180910390fd5b3373ffffffffffffffffffffffffffffffffffffffff168160010160009054906101000a900473ffffffffffffffffffffffffffffffffffffffff1673ffffffffffffffffffffffffffffffffffffffff16146112d6576040517f08c379a00000000000000000000000000000000000000000000000000000000081526004016112cd90614533565b60405180910390fd5b600062093a808260040154426112ec91906148b6565b6112f69190614797565b9050808260050154101561133f576040517f08c379a0000000000000000000000000000000000000000000000000000000008152600401611336906145b3565b60405180910390fd5b60028260000160006101000a81548160ff0219169083600481111561138d577f4e487b7100000000000000000000000000000000000000000000000000000000600052602160045260246000fd5b02179055508160070160009054906101000a900473ffffffffffffffffffffffffffffffffffffffff1673ffffffffffffffffffffffffffffffffffffffff166342842e0e8360010160009054906101000a900473ffffffffffffffffffffffffffffffffffffffff168460000160019054906101000a900473ffffffffffffffffffffffffffffffffffffffff1685600801546040518463ffffffff1660e01b815260040161143f939291906141f7565b600060405180830381600087803b15801561145957600080fd5b505af115801561146d573d6000803e3d6000fd5b505050508160010160009054906101000a900473ffffffffffffffffffffffffffffffffffffffff1673ffffffffffffffffffffffffffffffffffffffff166108fc83600201549081150290604051600060405180830381858888f193505050501580156114df573d6000803e3d6000fd5b5060046000848152602001908152602001600020600080820160006101000a81549060ff02191690556000820160016101000a81549073ffffffffffffffffffffffffffffffffffffffff02191690556001820160006101000a81549073ffffffffffffffffffffffffffffffffffffffff0219169055600282016000905560038201600090556004820160009055600582016000905560068201600090556007820160006101000a81549073ffffffffffffffffffffffffffffffffffffffff0219169055600882016000905550505050600160008190555050565b60026000541415611602576040517f08c379a00000000000000000000000000000000000000000000000000000000081526004016115f9906145d3565b60405180910390fd5b60026000819055506004600082815260200190815260200160002060070160009054906101000a900473ffffffffffffffffffffffffffffffffffffffff1673ffffffffffffffffffffffffffffffffffffffff1663e985e9c533306040518363ffffffff1660e01b815260040161167b9291906141ce565b60206040518083038186803b15801561169357600080fd5b505afa1580156116a7573d6000803e3d6000fd5b505050506040513d601f19601f820116820180604052508101906116cb9190613cb8565b61170a576040517f08c379a000000000000000000000000000000000000000000000000000000000815260040161170190614353565b60405180910390fd5b3373ffffffffffffffffffffffffffffffffffffffff166004600083815260200190815260200160002060070160009054906101000a900473ffffffffffffffffffffffffffffffffffffffff1673ffffffffffffffffffffffffffffffffffffffff16636352211e60046000858152602001908152602001600020600801546040518263ffffffff1660e01b81526004016117a6919061462a565b60206040518083038186803b1580156117be57600080fd5b505afa1580156117d2573d6000803e3d6000fd5b505050506040513d601f19601f820116820180604052508101906117f69190613bc9565b73ffffffffffffffffffffffffffffffffffffffff161461184c576040517f08c379a000000000000000000000000000000000000000000000000000000000815260040161184390614373565b60405180910390fd5b600480600083815260200190815260200160002060000160006101000a81548160ff021916908360048111156118ab577f4e487b7100000000000000000000000000000000000000000000000000000000600052602160045260246000fd5b02179055506118c167016345785d8a00006139ab565b600160008190555050565b60008060046000848152602001908152602001600020604051806101400160405290816000820160009054906101000a900460ff166004811115611939577f4e487b7100000000000000000000000000000000000000000000000000000000600052602160045260246000fd5b6004811115611971577f4e487b7100000000000000000000000000000000000000000000000000000000600052602160045260246000fd5b81526020016000820160019054906101000a900473ffffffffffffffffffffffffffffffffffffffff1673ffffffffffffffffffffffffffffffffffffffff1673ffffffffffffffffffffffffffffffffffffffff1681526020016001820160009054906101000a900473ffffffffffffffffffffffffffffffffffffffff1673ffffffffffffffffffffffffffffffffffffffff1673ffffffffffffffffffffffffffffffffffffffff16815260200160028201548152602001600382015481526020016004820154815260200160058201548152602001600682015481526020016007820160009054906101000a900473ffffffffffffffffffffffffffffffffffffffff1673ffffffffffffffffffffffffffffffffffffffff1673ffffffffffffffffffffffffffffffffffffffff168152602001600882015481525050905060008160e001514210611acc578160e00151611ace565b425b9050600062093a808360a0015183611ae691906148b6565b611af09190614797565b90508260c0015181611b029190614822565b9350505050919050565b60026000541415611b52576040517f08c379a0000000000000000000000000000000000000000000000000000000008152600401611b49906145d3565b60405180910390fd5b6002600081905550600060026000838152602001908152602001600020905060008160020160009054906101000a900473ffffffffffffffffffffffffffffffffffffffff1690508160000160019054906101000a900473ffffffffffffffffffffffffffffffffffffffff1673ffffffffffffffffffffffffffffffffffffffff163373ffffffffffffffffffffffffffffffffffffffff161415611c2d576040517f08c379a0000000000000000000000000000000000000000000000000000000008152600401611c2490614393565b60405180910390fd5b81600101543414611c73576040517f08c379a0000000000000000000000000000000000000000000000000000000008152600401611c6a906144d3565b60405180910390fd5b611c7c83613425565b611cbb576040517f08c379a0000000000000000000000000000000000000000000000000000000008152600401611cb290614493565b60405180910390fd5b60018260000160006101000a81548160ff02191690836002811115611d09577f4e487b7100000000000000000000000000000000000000000000000000000000600052602160045260246000fd5b02179055508073ffffffffffffffffffffffffffffffffffffffff166342842e0e8360000160019054906101000a900473ffffffffffffffffffffffffffffffffffffffff163385600301546040518463ffffffff1660e01b8152600401611d73939291906141f7565b600060405180830381600087803b158015611d8d57600080fd5b505af1158015611da1573d6000803e3d6000fd5b505050508160000160019054906101000a900473ffffffffffffffffffffffffffffffffffffffff1673ffffffffffffffffffffffffffffffffffffffff166108fc83600101549081150290604051600060405180830381858888f19350505050158015611e13573d6000803e3d6000fd5b507ff3debaf22196a6ddf52a60fa71058cd7edf5e25bb98f4e96c994a5d4a9b0dd3e83338460020160009054906101000a900473ffffffffffffffffffffffffffffffffffffffff1685600301548660010154604051611e7795949392919061466e565b60405180910390a15050600160008190555050565b611e94613aa8565b60046000838152602001908152602001600020604051806101400160405290816000820160009054906101000a900460ff166004811115611efe577f4e487b7100000000000000000000000000000000000000000000000000000000600052602160045260246000fd5b6004811115611f36577f4e487b7100000000000000000000000000000000000000000000000000000000600052602160045260246000fd5b81526020016000820160019054906101000a900473ffffffffffffffffffffffffffffffffffffffff1673ffffffffffffffffffffffffffffffffffffffff1673ffffffffffffffffffffffffffffffffffffffff1681526020016001820160009054906101000a900473ffffffffffffffffffffffffffffffffffffffff1673ffffffffffffffffffffffffffffffffffffffff1673ffffffffffffffffffffffffffffffffffffffff16815260200160028201548152602001600382015481526020016004820154815260200160058201548152602001600682015481526020016007820160009054906101000a900473ffffffffffffffffffffffffffffffffffffffff1673ffffffffffffffffffffffffffffffffffffffff1673ffffffffffffffffffffffffffffffffffffffff1681526020016008820154815250509050919050565b600260005414156120c5576040517f08c379a00000000000000000000000000000000000000000000000000000000081526004016120bc906145d3565b60405180910390fd5b600260008190555060006002600083815260200190815260200160002090508060000160019054906101000a900473ffffffffffffffffffffffffffffffffffffffff1673ffffffffffffffffffffffffffffffffffffffff163373ffffffffffffffffffffffffffffffffffffffff1614612176576040517f08c379a000000000000000000000000000000000000000000000000000000000815260040161216d906143b3565b60405180910390fd5b600060028111156121b0577f4e487b7100000000000000000000000000000000000000000000000000000000600052602160045260246000fd5b8160000160009054906101000a900460ff1660028111156121fa577f4e487b7100000000000000000000000000000000000000000000000000000000600052602160045260246000fd5b1461223a576040517f08c379a0000000000000000000000000000000000000000000000000000000008152600401612231906144b3565b60405180910390fd5b60028160000160006101000a81548160ff02191690836002811115612288577f4e487b7100000000000000000000000000000000000000000000000000000000600052602160045260246000fd5b02179055507f874afcdd5e90b2329b3c1601e613dcdc6abb6deb62ce61339a8337b48c053e51828260000160019054906101000a900473ffffffffffffffffffffffffffffffffffffffff166040516122e2929190614645565b60405180910390a150600160008190555050565b600060046000838152602001908152602001600020905060016004811115612347577f4e487b7100000000000000000000000000000000000000000000000000000000600052602160045260246000fd5b8160000160009054906101000a900460ff166004811115612391577f4e487b7100000000000000000000000000000000000000000000000000000000600052602160045260246000fd5b146123d1576040517f08c379a00000000000000000000000000000000000000000000000000000000081526004016123c890614473565b60405180910390fd5b80600301543414612417576040517f08c379a000000000000000000000000000000000000000000000000000000000815260040161240e90614433565b60405180910390fd5b8060060154421061245d576040517f08c379a000000000000000000000000000000000000000000000000000000000815260040161245490614573565b60405180910390fd5b600062093a808260040154836006015461247791906148b6565b6124819190614797565b905080600183600501546124959190614741565b11156124d6576040517f08c379a00000000000000000000000000000000000000000000000000000000081526004016124cd906143f3565b60405180910390fd5b600060146064346124e79190614797565b6124f191906147c8565b90506000813461250191906148b6565b905061250c826139ab565b8360000160019054906101000a900473ffffffffffffffffffffffffffffffffffffffff1673ffffffffffffffffffffffffffffffffffffffff166108fc829081150290604051600060405180830381858888f19350505050158015612576573d6000803e3d6000fd5b5083600501600081548092919061258c90614986565b91905055505050505050565b7f000000000000000000000000000000000000000000000000000000000000000081565b60008060046000848152602001908152602001600020604051806101400160405290816000820160009054906101000a900460ff166004811115612629577f4e487b7100000000000000000000000000000000000000000000000000000000600052602160045260246000fd5b6004811115612661577f4e487b7100000000000000000000000000000000000000000000000000000000600052602160045260246000fd5b81526020016000820160019054906101000a900473ffffffffffffffffffffffffffffffffffffffff1673ffffffffffffffffffffffffffffffffffffffff1673ffffffffffffffffffffffffffffffffffffffff1681526020016001820160009054906101000a900473ffffffffffffffffffffffffffffffffffffffff1673ffffffffffffffffffffffffffffffffffffffff1673ffffffffffffffffffffffffffffffffffffffff16815260200160028201548152602001600382015481526020016004820154815260200160058201548152602001600682015481526020016007820160009054906101000a900473ffffffffffffffffffffffffffffffffffffffff1673ffffffffffffffffffffffffffffffffffffffff1673ffffffffffffffffffffffffffffffffffffffff168152602001600882015481525050905060008160e0015142106127bc578160e001516127be565b425b9050600062093a808360a00151836127d691906148b6565b6127e09190614797565b9050808360c0015110806127f75750428360e00151115b9350505050919050565b60026000541415612847576040517f08c379a000000000000000000000000000000000000000000000000000000000815260040161283e906145d3565b60405180910390fd5b60026000819055506000600460008381526020019081526020016000209050600160048111156128a0577f4e487b7100000000000000000000000000000000000000000000000000000000600052602160045260246000fd5b8160000160009054906101000a900460ff1660048111156128ea577f4e487b7100000000000000000000000000000000000000000000000000000000600052602160045260246000fd5b1461292a576040517f08c379a000000000000000000000000000000000000000000000000000000000815260040161292190614473565b60405180910390fd5b3373ffffffffffffffffffffffffffffffffffffffff168160000160019054906101000a900473ffffffffffffffffffffffffffffffffffffffff1673ffffffffffffffffffffffffffffffffffffffff16146129bc576040517f08c379a00000000000000000000000000000000000000000000000000000000081526004016129b3906143d3565b60405180910390fd5b6129c5826125bc565b612a04576040517f08c379a00000000000000000000000000000000000000000000000000000000081526004016129fb90614413565b60405180910390fd5b60038160000160006101000a81548160ff02191690836004811115612a52577f4e487b7100000000000000000000000000000000000000000000000000000000600052602160045260246000fd5b02179055508060000160019054906101000a900473ffffffffffffffffffffffffffffffffffffffff1673ffffffffffffffffffffffffffffffffffffffff166108fc82600201549081150290604051600060405180830381858888f19350505050158015612ac5573d6000803e3d6000fd5b5060046000838152602001908152602001600020600080820160006101000a81549060ff02191690556000820160016101000a81549073ffffffffffffffffffffffffffffffffffffffff02191690556001820160006101000a81549073ffffffffffffffffffffffffffffffffffffffff0219169055600282016000905560038201600090556004820160009055600582016000905560068201600090556007820160006101000a81549073ffffffffffffffffffffffffffffffffffffffff02191690556008820160009055505050600160008190555050565b60026000541415612be7576040517f08c379a0000000000000000000000000000000000000000000000000000000008152600401612bde906145d3565b60405180910390fd5b600260008190555060008062093a804284612c0291906148b6565b612c0c91906149cf565b14905080612c585762093a80600162093a804285612c2a91906148b6565b612c349190614797565b612c3e9190614741565b612c4891906147c8565b42612c539190614741565b612c5a565b815b91508573ffffffffffffffffffffffffffffffffffffffff1663e985e9c533306040518363ffffffff1660e01b8152600401612c979291906141ce565b60206040518083038186803b158015612caf57600080fd5b505afa158015612cc3573d6000803e3d6000fd5b505050506040513d601f19601f82011682018060405250810190612ce79190613cb8565b612d26576040517f08c379a0000000000000000000000000000000000000000000000000000000008152600401612d1d90614353565b60405180910390fd5b3373ffffffffffffffffffffffffffffffffffffffff168673ffffffffffffffffffffffffffffffffffffffff16636352211e876040518263ffffffff1660e01b8152600401612d76919061462a565b60206040518083038186803b158015612d8e57600080fd5b505afa158015612da2573d6000803e3d6000fd5b505050506040513d601f19601f82011682018060405250810190612dc69190613bc9565b73ffffffffffffffffffffffffffffffffffffffff1614612e1c576040517f08c379a0000000000000000000000000000000000000000000000000000000008152600401612e1390614373565b60405180910390fd5b67016345785d8a00003414612e66576040517f08c379a0000000000000000000000000000000000000000000000000000000008152600401612e5d90614553565b60405180910390fd5b600060405180610140016040528060006004811115612eae577f4e487b7100000000000000000000000000000000000000000000000000000000600052602160045260246000fd5b81526020013373ffffffffffffffffffffffffffffffffffffffff168152602001600073ffffffffffffffffffffffffffffffffffffffff16815260200186815260200185815260200160008152602001600081526020018481526020018873ffffffffffffffffffffffffffffffffffffffff1681526020018781525090508060046000600354815260200190815260200160002060008201518160000160006101000a81548160ff02191690836004811115612f95577f4e487b7100000000000000000000000000000000000000000000000000000000600052602160045260246000fd5b021790555060208201518160000160016101000a81548173ffffffffffffffffffffffffffffffffffffffff021916908373ffffffffffffffffffffffffffffffffffffffff16021790555060408201518160010160006101000a81548173ffffffffffffffffffffffffffffffffffffffff021916908373ffffffffffffffffffffffffffffffffffffffff160217905550606082015181600201556080820151816003015560a0820151816004015560c0820151816005015560e082015181600601556101008201518160070160006101000a81548173ffffffffffffffffffffffffffffffffffffffff021916908373ffffffffffffffffffffffffffffffffffffffff16021790555061012082015181600801559050507f32e08351149249c094252d308bf6dee229d75fc098065a02ec0c005da75242786003543389898989896040516130ed97969594939291906146c1565b60405180910390a1600354600560008973ffffffffffffffffffffffffffffffffffffffff1673ffffffffffffffffffffffffffffffffffffffff16815260200190815260200160002060008881526020019081526020016000208190555060016003600082825461315f9190614741565b92505081905550505060016000819055505050505050565b60008060046000848152602001908152602001600020604051806101400160405290816000820160009054906101000a900460ff1660048111156131e4577f4e487b7100000000000000000000000000000000000000000000000000000000600052602160045260246000fd5b600481111561321c577f4e487b7100000000000000000000000000000000000000000000000000000000600052602160045260246000fd5b81526020016000820160019054906101000a900473ffffffffffffffffffffffffffffffffffffffff1673ffffffffffffffffffffffffffffffffffffffff1673ffffffffffffffffffffffffffffffffffffffff1681526020016001820160009054906101000a900473ffffffffffffffffffffffffffffffffffffffff1673ffffffffffffffffffffffffffffffffffffffff1673ffffffffffffffffffffffffffffffffffffffff16815260200160028201548152602001600382015481526020016004820154815260200160058201548152602001600682015481526020016007820160009054906101000a900473ffffffffffffffffffffffffffffffffffffffff1673ffffffffffffffffffffffffffffffffffffffff1673ffffffffffffffffffffffffffffffffffffffff168152602001600882015481525050905060018160c001516133719190614741565b62093a8061337f91906147c8565b8160a0015161338e9190614741565b915050919050565b60035481565b60026020528060005260406000206000915090508060000160009054906101000a900460ff16908060000160019054906101000a900473ffffffffffffffffffffffffffffffffffffffff16908060010154908060020160009054906101000a900473ffffffffffffffffffffffffffffffffffffffff16908060030154905085565b60015481565b600080600260008481526020019081526020016000206040518060a00160405290816000820160009054906101000a900460ff166002811115613491577f4e487b7100000000000000000000000000000000000000000000000000000000600052602160045260246000fd5b60028111156134c9577f4e487b7100000000000000000000000000000000000000000000000000000000600052602160045260246000fd5b81526020016000820160019054906101000a900473ffffffffffffffffffffffffffffffffffffffff1673ffffffffffffffffffffffffffffffffffffffff1673ffffffffffffffffffffffffffffffffffffffff168152602001600182015481526020016002820160009054906101000a900473ffffffffffffffffffffffffffffffffffffffff1673ffffffffffffffffffffffffffffffffffffffff1673ffffffffffffffffffffffffffffffffffffffff1681526020016003820154815250509050600081606001519050816020015173ffffffffffffffffffffffffffffffffffffffff168173ffffffffffffffffffffffffffffffffffffffff16636352211e84608001516040518263ffffffff1660e01b81526004016135f0919061462a565b60206040518083038186803b15801561360857600080fd5b505afa15801561361c573d6000803e3d6000fd5b505050506040513d601f19601f820116820180604052508101906136409190613bc9565b73ffffffffffffffffffffffffffffffffffffffff161480156136ee57508073ffffffffffffffffffffffffffffffffffffffff1663e985e9c58360200151306040518363ffffffff1660e01b815260040161369d9291906141ce565b60206040518083038186803b1580156136b557600080fd5b505afa1580156136c9573d6000803e3d6000fd5b505050506040513d601f19601f820116820180604052508101906136ed9190613cb8565b5b801561376e57506000600281111561372f577f4e487b7100000000000000000000000000000000000000000000000000000000600052602160045260246000fd5b8260000151600281111561376c577f4e487b7100000000000000000000000000000000000000000000000000000000600052602160045260246000fd5b145b92505050919050565b6000806004600084815260200190815260200160002090508060070160009054906101000a900473ffffffffffffffffffffffffffffffffffffffff1673ffffffffffffffffffffffffffffffffffffffff1663e985e9c58260000160019054906101000a900473ffffffffffffffffffffffffffffffffffffffff16306040518363ffffffff1660e01b81526004016138129291906141ce565b60206040518083038186803b15801561382a57600080fd5b505afa15801561383e573d6000803e3d6000fd5b505050506040513d601f19601f820116820180604052508101906138629190613cb8565b80156139a357506004600084815260200190815260200160002060000160019054906101000a900473ffffffffffffffffffffffffffffffffffffffff1673ffffffffffffffffffffffffffffffffffffffff166004600085815260200190815260200160002060070160009054906101000a900473ffffffffffffffffffffffffffffffffffffffff1673ffffffffffffffffffffffffffffffffffffffff16636352211e60046000878152602001908152602001600020600801546040518263ffffffff1660e01b815260040161393b919061462a565b60206040518083038186803b15801561395357600080fd5b505afa158015613967573d6000803e3d6000fd5b505050506040513d601f19601f8201168201806040525081019061398b9190613bc9565b73ffffffffffffffffffffffffffffffffffffffff16145b915050919050565b7f000000000000000000000000000000000000000000000000000000000000000073ffffffffffffffffffffffffffffffffffffffff166108fc829081150290604051600060405180830381858888f19350505050158015613a11573d6000803e3d6000fd5b5050565b6040518060a0016040528060006002811115613a5a577f4e487b7100000000000000000000000000000000000000000000000000000000600052602160045260246000fd5b8152602001600073ffffffffffffffffffffffffffffffffffffffff16815260200160008152602001600073ffffffffffffffffffffffffffffffffffffffff168152602001600081525090565b60405180610140016040528060006004811115613aee577f4e487b7100000000000000000000000000000000000000000000000000000000600052602160045260246000fd5b8152602001600073ffffffffffffffffffffffffffffffffffffffff168152602001600073ffffffffffffffffffffffffffffffffffffffff1681526020016000815260200160008152602001600081526020016000815260200160008152602001600073ffffffffffffffffffffffffffffffffffffffff168152602001600081525090565b600081359050613b8481614e38565b92915050565b600081519050613b9981614e38565b92915050565b600081519050613bae81614e4f565b92915050565b600081359050613bc381614e66565b92915050565b600060208284031215613bdb57600080fd5b6000613be984828501613b8a565b91505092915050565b600080600060608486031215613c0757600080fd5b6000613c1586828701613b75565b9350506020613c2686828701613bb4565b9250506040613c3786828701613bb4565b9150509250925092565b600080600080600060a08688031215613c5957600080fd5b6000613c6788828901613b75565b9550506020613c7888828901613bb4565b9450506040613c8988828901613bb4565b9350506060613c9a88828901613bb4565b9250506080613cab88828901613bb4565b9150509295509295909350565b600060208284031215613cca57600080fd5b6000613cd884828501613b9f565b91505092915050565b600060208284031215613cf357600080fd5b6000613d0184828501613bb4565b91505092915050565b613d13816148ea565b82525050565b613d22816148ea565b82525050565b613d31816148fc565b82525050565b613d4081614962565b82525050565b613d4f81614962565b82525050565b613d5e81614974565b82525050565b613d6d81614974565b82525050565b613d7c8161492e565b82525050565b6000613d8f601183614730565b9150613d9a82614a8d565b602082019050919050565b6000613db2600f83614730565b9150613dbd82614ab6565b602082019050919050565b6000613dd5601683614730565b9150613de082614adf565b602082019050919050565b6000613df8601e83614730565b9150613e0382614b08565b602082019050919050565b6000613e1b600983614730565b9150613e2682614b31565b602082019050919050565b6000613e3e601183614730565b9150613e4982614b5a565b602082019050919050565b6000613e61603983614730565b9150613e6c82614b83565b604082019050919050565b6000613e84600783614730565b9150613e8f82614bd2565b602082019050919050565b6000613ea7601583614730565b9150613eb282614bfb565b602082019050919050565b6000613eca601183614730565b9150613ed582614c24565b602082019050919050565b6000613eed600b83614730565b9150613ef882614c4d565b602082019050919050565b6000613f10601583614730565b9150613f1b82614c76565b602082019050919050565b6000613f33601483614730565b9150613f3e82614c9f565b602082019050919050565b6000613f56600b83614730565b9150613f6182614cc8565b602082019050919050565b6000613f79600a83614730565b9150613f8482614cf1565b602082019050919050565b6000613f9c600983614730565b9150613fa782614d1a565b602082019050919050565b6000613fbf600783614730565b9150613fca82614d43565b602082019050919050565b6000613fe2601083614730565b9150613fed82614d6c565b602082019050919050565b6000614005601283614730565b915061401082614d95565b602082019050919050565b6000614028601b83614730565b915061403382614dbe565b602082019050919050565b600061404b601f83614730565b915061405682614de7565b602082019050919050565b60a0820160008201516140776000850182613d37565b50602082015161408a6020850182613d0a565b50604082015161409d6040850182614195565b5060608201516140b06060850182613d0a565b5060808201516140c36080850182614195565b50505050565b610140820160008201516140e06000850182613d55565b5060208201516140f36020850182613d0a565b5060408201516141066040850182613d0a565b5060608201516141196060850182614195565b50608082015161412c6080850182614195565b5060a082015161413f60a0850182614195565b5060c082015161415260c0850182614195565b5060e082015161416560e0850182614195565b5061010082015161417a610100850182613d0a565b5061012082015161418f610120850182614195565b50505050565b61419e81614958565b82525050565b6141ad81614958565b82525050565b60006020820190506141c86000830184613d19565b92915050565b60006040820190506141e36000830185613d19565b6141f06020830184613d19565b9392505050565b600060608201905061420c6000830186613d19565b6142196020830185613d19565b61422660408301846141a4565b949350505050565b60006020820190506142436000830184613d28565b92915050565b600060a08201905061425e6000830188613d46565b61426b6020830187613d19565b61427860408301866141a4565b6142856060830185613d19565b61429260808301846141a4565b9695505050505050565b6000610140820190506142b2600083018d613d64565b6142bf602083018c613d19565b6142cc604083018b613d19565b6142d9606083018a6141a4565b6142e660808301896141a4565b6142f360a08301886141a4565b61430060c08301876141a4565b61430d60e08301866141a4565b61431b610100830185613d19565b6143296101208301846141a4565b9b9a5050505050505050505050565b600060208201905061434d6000830184613d73565b92915050565b6000602082019050818103600083015261436c81613d82565b9050919050565b6000602082019050818103600083015261438c81613da5565b9050919050565b600060208201905081810360008301526143ac81613dc8565b9050919050565b600060208201905081810360008301526143cc81613deb565b9050919050565b600060208201905081810360008301526143ec81613e0e565b9050919050565b6000602082019050818103600083015261440c81613e31565b9050919050565b6000602082019050818103600083015261442c81613e54565b9050919050565b6000602082019050818103600083015261444c81613e77565b9050919050565b6000602082019050818103600083015261446c81613e9a565b9050919050565b6000602082019050818103600083015261448c81613ebd565b9050919050565b600060208201905081810360008301526144ac81613ee0565b9050919050565b600060208201905081810360008301526144cc81613f03565b9050919050565b600060208201905081810360008301526144ec81613f26565b9050919050565b6000602082019050818103600083015261450c81613f49565b9050919050565b6000602082019050818103600083015261452c81613f6c565b9050919050565b6000602082019050818103600083015261454c81613f8f565b9050919050565b6000602082019050818103600083015261456c81613fb2565b9050919050565b6000602082019050818103600083015261458c81613fd5565b9050919050565b600060208201905081810360008301526145ac81613ff8565b9050919050565b600060208201905081810360008301526145cc8161401b565b9050919050565b600060208201905081810360008301526145ec8161403e565b9050919050565b600060a0820190506146086000830184614061565b92915050565b60006101408201905061462460008301846140c9565b92915050565b600060208201905061463f60008301846141a4565b92915050565b600060408201905061465a60008301856141a4565b6146676020830184613d19565b9392505050565b600060a08201905061468360008301886141a4565b6146906020830187613d19565b61469d6040830186613d19565b6146aa60608301856141a4565b6146b760808301846141a4565b9695505050505050565b600060e0820190506146d6600083018a6141a4565b6146e36020830189613d19565b6146f06040830188613d19565b6146fd60608301876141a4565b61470a60808301866141a4565b61471760a08301856141a4565b61472460c08301846141a4565b98975050505050505050565b600082825260208201905092915050565b600061474c82614958565b915061475783614958565b9250827fffffffffffffffffffffffffffffffffffffffffffffffffffffffffffffffff0382111561478c5761478b614a00565b5b828201905092915050565b60006147a282614958565b91506147ad83614958565b9250826147bd576147bc614a2f565b5b828204905092915050565b60006147d382614958565b91506147de83614958565b9250817fffffffffffffffffffffffffffffffffffffffffffffffffffffffffffffffff048311821515161561481757614816614a00565b5b828202905092915050565b600061482d8261492e565b91506148388361492e565b9250827f80000000000000000000000000000000000000000000000000000000000000000182126000841215161561487357614872614a00565b5b827f7fffffffffffffffffffffffffffffffffffffffffffffffffffffffffffffff0182136000841216156148ab576148aa614a00565b5b828203905092915050565b60006148c182614958565b91506148cc83614958565b9250828210156148df576148de614a00565b5b828203905092915050565b60006148f582614938565b9050919050565b60008115159050919050565b600081905061491682614e10565b919050565b600081905061492982614e24565b919050565b6000819050919050565b600073ffffffffffffffffffffffffffffffffffffffff82169050919050565b6000819050919050565b600061496d82614908565b9050919050565b600061497f8261491b565b9050919050565b600061499182614958565b91507fffffffffffffffffffffffffffffffffffffffffffffffffffffffffffffffff8214156149c4576149c3614a00565b5b600182019050919050565b60006149da82614958565b91506149e583614958565b9250826149f5576149f4614a2f565b5b828206905092915050565b7f4e487b7100000000000000000000000000000000000000000000000000000000600052601160045260246000fd5b7f4e487b7100000000000000000000000000000000000000000000000000000000600052601260045260246000fd5b7f4e487b7100000000000000000000000000000000000000000000000000000000600052602160045260246000fd5b7f616c6c6f77616e6365206e6f7420736574000000000000000000000000000000600082015250565b7f746f6b656e206f776e6572736869700000000000000000000000000000000000600082015250565b7f53656c6c65722063616e6e6f7420626520627579657200000000000000000000600082015250565b7f4f6e6c792073656c6c65722063616e2063616e63656c206c697374696e670000600082015250565b7f6e6f74206d616b65720000000000000000000000000000000000000000000000600082015250565b7f746f6f206d616e79207061796d656e7473000000000000000000000000000000600082015250565b7f7072656d69756d732068617665206265656e207061696420616e64206465616460008201527f6c696e652069732079657420746f206265207265616368656400000000000000602082015250565b7f7072656d69756d00000000000000000000000000000000000000000000000000600082015250565b7f4d616b65722063616e6e6f742062652074616b65720000000000000000000000600082015250565b7f73746174757320213d207374616b696e67000000000000000000000000000000600082015250565b7f6e6f742062757961626c65000000000000000000000000000000000000000000600082015250565b7f4c697374696e67206973206e6f74206163746976650000000000000000000000600082015250565b7f496e73756666696369656e74207061796d656e74000000000000000000000000600082015250565b7f21636f6c6c61746572616c000000000000000000000000000000000000000000600082015250565b7f21616c6c6f77616e636500000000000000000000000000000000000000000000600082015250565b7f6e6f742074616b65720000000000000000000000000000000000000000000000600082015250565b7f2162696446656500000000000000000000000000000000000000000000000000600082015250565b7f646561646c696e65207265616368656400000000000000000000000000000000600082015250565b7f6e6f6e2d616374697665207374616b696e670000000000000000000000000000600082015250565b7f7072656d69756d732068617665206e6f74206265656e20706169640000000000600082015250565b7f5265656e7472616e637947756172643a207265656e7472616e742063616c6c00600082015250565b60038110614e2157614e20614a5e565b5b50565b60058110614e3557614e34614a5e565b5b50565b614e41816148ea565b8114614e4c57600080fd5b50565b614e58816148fc565b8114614e6357600080fd5b50565b614e6f81614958565b8114614e7a57600080fd5b5056fea2646970667358221220e63495de8bb5ab3bdbb192316b8a65d1283a5ea30f88b1b117892389b7f1b99764736f6c63430008040033",
  "linkReferences": {},
  "deployedLinkReferences": {}
}